:020000040000FA
:0600000000008A113B2AFA
:08000800F200030E8301F10078
:100010000A088A01F000040883120313D100831236
:100020000313851817288A111C218A111E28831290
:1000300003134C181E288A114B208A1105088312BD
:1000400003130B10831203135108840070088A00F5
:100050008301710E8300F20E720E09008A114B218A
:100060008A1183120313CB0183120313CC0185166B
:10007000033083120313AD008F30AC008030AE002C
:100080002C08FE002D08FF002E088A11CF228A11AD
:100090006300382808000A3083120313B2000030CE
:1000A0008312031332040319F02885128512682382
:1000B00085160E3083120313D000682383120313B6
:1000C000851AEC28563083120313D000682383125C
:1000D0000313851EDC288A1187218A1183120313DA
:1000E000B30033080319EC280330B400A830B30080
:1000F0008030B5003308FE003408FF0035088A114F
:10010000CF228A1183120313360883120313B3001C
:100110008A11EF228A118312031337088312031303
:10012000B3008A11EF228A11831203133808831255
:100130000313B3008A11EF228A11831203133908C3
:1001400083120313B3008A11EF228A11831203135F
:100150003A0883120313B3008A11EF228A11831223
:1001600003133B0883120313B3008A11EF228A1191
:10017000831203133C0883120313B3008A11EF2286
:100180008A11831203133D0883120313B3008A11EB
:10019000EF228A11033083120313B400BA30B30084
:1001A0008030B5003308FE003408FF0035088A119E
:1001B000CF228A110521F028033083120313B400E3
:1001C0009D30B3008030B5003308FE003408FF00D6
:1001D00035088A11CF228A1183120313B2034F28E4
:1001E0000800831203134C1CF828CC0105150429C0
:1001F000013083120313CB00013083120313CC00B0
:1002000005118A1170238A11080083120313CC018F
:100210000515831203134B1C14298A116D238A11AF
:1002200083120313CB011B298A1170238A11013019
:1002300083120313CB00080083120313AF010230B3
:1002400083120313050583120313B0003008003036
:1002500003190130B10064302F02B001031C3014C7
:100260003008B105310803193D290A308A11552398
:100270008A1183120313AF0A1F29831203132F0855
:10028000643A031D47298A11F1208A114A298A11EB
:1002900005218A11080012308316031385002030CF
:1002A00087008312031385018701051587158316BF
:1002B000031391010730831203139900831603136C
:1002C000811395019514831203138B170B17831653
:1002D0000313960196141616831203138B156030C0
:1002E000831603138F00193083120313930016151E
:1002F0001612971717169712831603138C108C1269
:100300008312031316131713961296160800333030
:10031000232283120313C301083083120313430201
:100320000318A6294308363EC40000300318013ED6
:10033000C500042283120313C600440884008313FB
:100340004518831746088000C30A8C2983120313BB
:10035000360883120313C300023A0319B12900308F
:10036000032A83120313CD0183120313C301073041
:100370008312031343020318F2294308363EC400D4
:1003800000300318013EC50044088400831345185B
:100390008317000883120313CE0083120313CF01C7
:1003A0000830831203134F020318EE29031083123F
:1003B0000313CE0C030883120313C4000310CD0CE7
:1003C000030883120313C406441CEA298C308312E9
:1003D0000313CD0683120313CF0AD029831203130C
:1003E000C30AB729831203133D0883120313C30002
:1003F000831203134D088312031343060319022AC1
:100400000030032A013008000030CE000830CF0051
:1004100085128512000000000000000000000000AE
:1004200085160000000000000000050820390310B8
:10043000FF3ECE0C0A30D0006823CF0B082A83126F
:1004400003134E08080083120313CE0008308312F2
:100450000313CF0085128512000000000000CE0CAF
:10046000031885160C30D0006823851600000000A4
:10047000CF0B2A2A0800B230FE000330FF00803084
:100480008A11000021238A11000083120313A100A6
:100490007F08A000B430A2000330A300831203132E
:1004A0002008A4002108A500FF30A007031CA10319
:1004B000240825040319CB2A04302207A400A5012F
:1004C000A50D2308A5072408FE002508FF0080309D
:1004D0008A11000021238A11000083120313A70050
:1004E0007F08A6002208FE002308FF0080308A1142
:1004F000000021238A11000083120313A900A50024
:100500007F08A800A40002302207A400A501A50DC1
:100510002308A5072408FE002508FF0080308A1163
:10052000000021238A11000083120313A500AB00F1
:100530007F08A400AA00831203132608AA00270834
:10054000AB00FF30A607031CA7032A082B040319DE
:10055000C42A2808FE002908FF0080308A11000004
:100560000E238A11000083120313AA0024088400BA
:100570008313251883172A088000A80A0319A90ADB
:10058000A40A0319A50A9B2A063083120313A207A3
:100590000318A30A4E2A8A1100002E28080083128D
:1005A0000313C1007F08C0007E08BF00831203133D
:1005B0003F08FE004008FF0041088A110E238A11FF
:1005C00083120313C20042080319EE2A4208EF22E5
:1005D00083120313BF0A0319C00AD62A0800831224
:1005E0000313BE00831203138C18F82AFF22F22A89
:1005F000831203133E08831203139500080083122D
:100600000313971C072B96129616171217168312B0
:100610000313171D0D2B961296160800003A0319A6
:10062000152B803A03191C2B00347E088400831399
:100630007F188317000808007F088A007E08820060
:100640000800003A0319292B803A0319332BFF01C4
:1006500000347E08840083137F1883170008FF008E
:10066000840A000808008A1100001C23FD00FE0F08
:10067000FF03FF0A8A1100001C23FC007D08FF0015
:100680007C08080083120313C80000308312031390
:1006900048040319542B143083120313D000682329
:1006A00083120313C803452B080083120313C700EA
:1006B00000308312031347040319672BC8308312D9
:1006C0000313D000682383120313C703582B0800B9
:1006D00000000000D00B682B08000F3073230800C7
:1006E00008307323080083120313C9001430CA00B2
:1006F0000030831203134A0403198E2B071483124C
:10070000031349088A1142238A11071014308A11F1
:1007100055238A1183120313CA03782B080053341C
:100720006C3465346534703469346E3467342E3417
:100730002E342E340A340D340034533468346F347C
:1007400072347434653464343F340A340D34003404
:10075000693442347534743474346F346E343A34DA
:100760002034003401340034BD34033452340034B6
:0C077000013400340A340D34003400342D
:02400E00D43F9D
:00000001FF
