:020000040000FA
:0600000000008A11A12896
:06000A008A1137208A1163
:1000100087106430B10000000000B10B0B2887147A
:100020000E30B10000000000B10B12288312031340
:10003000871B2C285630B10000000000B10B1C2893
:1000400083120313871F27280430870026280130D6
:100050008312031387002F28831203138701FF30B5
:10006000B10000000000B10B3128082808008316F9
:100070000313850101308700831203138501870173
:100080008316031391010730831203139900043080
:10009000831603139500811260308F00193083128C
:1000A0000313930016151612971717169712831637
:1000B00003138C108C12831203131613171396124A
:1000C0009616080083120313AF007F08AE007E0867
:1000D000AD00831203132D08FE002E08FF002F0829
:1000E0008A1135218A1183120313B00030080319D5
:1000F00081283008822083120313AD0A0319AE0A47
:100100006928080083120313AC00831203138C18B0
:100110008B2892208528831203132C088312031343
:100120009500080083120313971C9A2896129616BE
:100130001712171683120313171DA028961296166E
:1001400008006930FE000130FF0080308A11000095
:1001500048218A11000083120313A1007F08A00028
:100160006B30A2000130A300831203132008A40007
:100170002108A500FF30A007031CA10324082504C3
:100180000319312904302207A400A501A50D230875
:10019000A5072408FE002508FF0080308A11000012
:1001A00048218A11000083120313A7007F08A600CC
:1001B0002208FE002308FF0080308A110000482139
:1001C0008A11000083120313A900A5007F08A8006C
:1001D000A40002302207A400A501A50D2308A5074D
:1001E0002408FE002508FF0080308A110000482105
:1001F0008A11000083120313A500AB007F08A4003E
:10020000AA00831203132608AA002708AB00FF30B8
:10021000A607031CA7032A082B0403192A29280868
:10022000FE002908FF0080308A11000035218A1164
:10023000000083120313AA002408840083132518E6
:1002400083172A088000A80A0319A90AA40A031917
:10025000A50A0129063083120313A2070318A30A73
:10026000B4288A11000005280800003A03193C2927
:10027000803A0319432900347E08840083137F18D1
:100280008317000808007F088A007E0882000800A3
:10029000003A03195029803A03195A29FF01003402
:1002A0007E08840083137F1883170008FF00840AE8
:1002B000000808008A1100004321FD00FE0FFF0323
:1002C000FF0A8A1100004321FC007D08FF007C0822
:1002D0000800013400347134013432340034013404
:0402E00000340034B2
:02400E00D43F9D
:00000001FF
