:020000040000FA
:0600000000008A118029B6
:06000A003330A720831231
:100010000313B901831203133908803E783E031895
:10002000252839082C3EBA0000300318013EBB00D9
:10003000882083120313BC003A08840083133B1802
:1000400083173C088000B90A0A28831203132C087E
:1000500083120313B900023A0319302800308728AD
:1000600083120313C00183120313B9018312031314
:100070003908803E793E0318762839082C3EBA00AC
:1000800000300318013EBB003A08840083133B187C
:100090008317000883120313C20083120313C301E2
:1000A000831203134308803E783E0318722803101E
:1000B00083120313C21B0314C20C0308831203131D
:1000C000BA000310C00C030883120313BB00BA0666
:1000D0003A1C6E288C3083120313C006831203135C
:1000E000C30A502883120313B90A36288312031354
:1000F000330883120313B9008312031340088312D9
:1001000003133906031986280030872801300800B8
:100110000030C2000830C3000511051100000000C6
:1001200000000000000000000515000000000000B5
:100130000000050804390310FF3EC20C0A30C1005C
:10014000BF20C30B8C2883120313420808008312BC
:100150000313C200083083120313C30005110511F5
:10016000000000000000C20C031805150C30C1008F
:10017000BF20051500000000C30BAE2808000000DA
:100180000000C10BBF2808008A1155218A110511F2
:100190000511BF2005150E3083120313C100BF20C7
:1001A0008312031305194E29563083120313C1001D
:1001B000BF2083120313051D4E290230831203133F
:1001C000BE008730BD008030BF003D08FE003E0805
:1001D000FF003F088A1114228A118A1105208A1112
:1001E00083120313BD003D0803193E298312031334
:1001F0002C0883120313BD008A1134228A11831242
:1002000003132D0883120313BD008A1134228A11AF
:10021000831203132E0883120313BD008A113422A4
:100220008A11831203132F0883120313BD008A114E
:1002300034228A1183120313300883120313BD0082
:100240008A1134228A118312031331088312031393
:10025000BD008A1134228A118312031332088312DB
:100260000313BD008A1134228A1183120313330849
:1002700083120313BD008A1134228A1102308312C3
:100280000313BE00A130BD008030BF003D08FE005A
:100290003E08FF003F088A1114228A11FF308312A2
:1002A0000313C100BF20C72808008316031385016C
:1002B000023087008312031385018701831603131D
:1002C000910107308312031399000430831603133E
:1002D0009500811260308F00193083120313930050
:1002E00016151612971717169712831603138C10EC
:1002F0008C12831203131613171396129616080006
:100300009930FE000230FF0080308A110000662222
:100310008A11000083120313A1007F08A0009B3004
:10032000A2000230A300831203132008A4002108B6
:10033000A500FF30A007031CA1032408250403190E
:10034000102A04302207A400A501A50D2308A50743
:100350002408FE002508FF0080308A110000662274
:100360008A11000083120313A7007F08A600220849
:10037000FE002308FF0080308A11000066228A11E7
:10038000000083120313A900A5007F08A800A400A1
:1003900002302207A400A501A50D2308A507240803
:1003A000FE002508FF0080308A11000066228A11B5
:1003B000000083120313A500AB007F08A400AA006D
:1003C000831203132608AA002708AB00FF30A607F4
:1003D000031CA7032A082B040319092A2808FE0076
:1003E0002908FF0080308A11000053228A11000082
:1003F00083120313AA00240884008313251883178B
:100400002A088000A80A0319A90AA40A0319A50A40
:10041000E029063083120313A2070318A30A9329C5
:100420008A110000C428080083120313B7007F0854
:10043000B6007E08B500831203133508FE003608A7
:10044000FF0037088A1153228A1183120313B80060
:1004500038080319332A3808342283120313B50AE3
:100460000319B60A1B2A080083120313B40083126F
:1004700003138C183D2A4422372A831203133408AD
:10048000831203139500080083120313971C4C2A50
:10049000961296161712171683120313171D522A57
:1004A000961296160800003A03195A2A803A031940
:1004B000612A00347E08840083137F1883170008A4
:1004C00008007F088A007E0882000800003A0319AD
:1004D0006E2A803A0319782AFF0100347E088400CE
:1004E00083137F1883170008FF00840A00080800A0
:1004F0008A1100006122FD00FE0FFF03FF0A8A112E
:1005000000006122FC007D08FF007C0808006934BF
:1005100042347534743474346F346E342034463459
:100520006F3475346E3464342134203420342034F4
:10053000003401340034A43402344434003401342F
:0A05400000340A340D340034003496
:02400E00D43F9D
:00000001FF
