:020000040000FA
:0600000000008A115F29D7
:06000A008A118C208A110E
:10001000071007106430C0001B2107140E30C00009
:100020001B2183120313071887285630C0001B2199
:1000300083120313071C8728023083120313A100C5
:100040002730A0008030A2002008FE002108FF0019
:1000500022088A1120218A118A11B7208A1183125D
:100060000313380883120313A0008A1140218A1158
:1000700083120313390883120313A0008A1140214D
:100080008A11831203133A0883120313A0008A1102
:1000900040218A11831203133B0883120313A0002B
:1000A0008A1140218A11831203133C08831203131F
:1000B000A0008A1140218A11831203133D08831284
:1000C0000313A0008A1140218A11831203133E08F2
:1000D00083120313A0008A1140218A118312031393
:1000E0003F0883120313A0008A1140218A110230B5
:1000F00083120313A1004130A0008030A200200829
:10010000FE002108FF0022088A1120218A11FF30F9
:10011000C0001B2108280800831603138501023044
:10012000870083120313850187018316031391014E
:1001300007308312031399000430831603139500CC
:10014000811260308F00193083120313930016154B
:100150001612971717169712831603138C108C120A
:1001600083120313161317139612961608003330D2
:100170000321083083120313A80083120313A8037A
:100180002808383EA90000300318013EAA00E220EA
:1001900083120313AB002908840083132A188317E2
:1001A0002B0880002808031DBD288312031338087C
:1001B00083120313A800013A0319E0280030E12854
:1001C00001300800083083120313C2000030C10060
:1001D00007100710000000000000000000000000F1
:1001E0000714000000000000000007080139031098
:1001F000FF3EC10C0A30C0001B21C20BE82883124D
:1002000003134108080083120313C100083083124E
:100210000313C20007100710000000000000C10C0B
:10022000031807140C30C0001B2107140000000045
:10023000C20B0A29080000000000C00B1B2908009F
:1002400083120313A6007F08A5007E08A400831272
:1002500003132408FE002508FF0026088A11F32155
:100260008A1183120313A700270803193F292708BF
:10027000402183120313A40A0319A50A27290800A1
:1002800083120313A300831203138C1849295021EE
:1002900043298312031323088312031395000800D4
:1002A00083120313971C58299612961617121716C5
:1002B00083120313171D5E29961296160800393013
:1002C000FE000230FF0080308A11000006228A11F1
:1002D000000083120313AD007F08AC003B30AE007A
:1002E0000230AF00831203132C08B0002D08B100B8
:1002F000FF30AC07031CAD03300831040319EF29AC
:1003000004302E07B000B101B10D2F08B10730083D
:10031000FE003108FF0080308A11000006228A1199
:10032000000083120313B3007F08B2002E08FE0002
:100330002F08FF0080308A11000006228A11000079
:1003400083120313B500B1007F08B400B00002307F
:100350002E07B000B101B10D2F08B1073008FE0023
:100360003108FF0080308A11000006228A11000047
:1003700083120313B100B7007F08B000B6008312E8
:1003800003133208B6003308B700FF30B207031C6E
:10039000B303360837040319E8293408FE0035088A
:1003A000FF0080308A110000F3218A1100008312BF
:1003B0000313B600300884008313311883173608FE
:1003C0008000B40A0319B50AB00A0319B10ABF299B
:1003D000063083120313AE070318AF0A72298A117D
:1003E000000005280800003A0319FA29803A031989
:1003F000012A00347E08840083137F1883170008C5
:1004000008007F088A007E0882000800003A03196D
:100410000E2A803A0319182AFF0100347E0884004E
:1004200083137F1883170008FF00840A0008080060
:100430008A1100000122FD00FE0FFF03FF0A8A114E
:1004400000000122FC007D08FF007C0808006934E0
:1004500042347534743474346F346E34203446341A
:100460006F3475346E3464342134203420342034B5
:100470000034013400344434023443340034013451
:0A04800000340A340D340034003457
:02400E00D43F9D
:00000001FF
