:020000040000FA
:0600000000008A11BF2977
:06000A008A1196208A1104
:10001000071007107B2107140E3083120313C00052
:100020007B218312031307188F2856308312031382
:10003000C0007B2183120313071C8F280230831218
:100040000313A1008730A0008030A2002008FE002A
:100050002108FF0022088A1180218A118A11C120FB
:100060008A1183120313A000200803197F2883122A
:100070000313380883120313A0008A11A0218A11E8
:1000800083120313390883120313A0008A11A021DD
:100090008A11831203133A0883120313A0008A11F2
:1000A000A0218A11831203133B0883120313A000BB
:1000B0008A11A0218A11831203133C0883120313AF
:1000C000A0008A11A0218A11831203133D08831214
:1000D0000313A0008A11A0218A11831203133E0882
:1000E00083120313A0008A11A0218A118312031323
:1000F0003F0883120313A0008A11A0218A11023045
:1001000083120313A100A130A0008030A2002008B8
:10011000FE002108FF0022088A1180218A11FF3089
:1001200083120313C0007B210828080083160313E1
:10013000850102308700831203138501870183162E
:1001400003139101073083120313990004308316BF
:1001500003139500811260308F001930831203134E
:100160009300161516129717171697128316031376
:100170008C108C12831203131613171396129616F3
:1001800008003330632183120313A8018312031381
:100190002808803E783E0318E1282808383EA90048
:1001A00000300318013EAA00442183120313AB0060
:1001B0002908840083132A1883172B088000A80AB3
:1001C000C62883120313380883120313A800023AC7
:1001D0000319EC280030432983120313C30183124F
:1001E0000313A801831203132808803E793E0318E5
:1001F00032292808383EA90000300318013EAA0021
:100200002908840083132A18831700088312031314
:10021000C10083120313C201831203134208803EFC
:10022000783E03182E29031083120313C11B0314F5
:10023000C10C030883120313A9000310C30C0308A5
:1002400083120313AA00A906291C2A298C308312C1
:100250000313C30683120313C20A0C298312031368
:10026000A80AF228831203133F0883120313A8007D
:100270008312031343088312031328060319422928
:1002800000304329013008000030C1000830C200AE
:100290000710071000000000000000000000000030
:1002A00007140000000000000000070801390310D7
:1002B000FF3EC10C0A30C0007B21C20B48298312CB
:1002C00003134108080083120313C100083083128E
:1002D0000313C20007100710000000000000C10C4B
:1002E000031807140C30C0007B2107140000000025
:1002F000C20B6A29080000000000C00B7B2908001F
:1003000083120313A6007F08A5007E08A4008312B1
:1003100003132408FE002508FF0026088A11532233
:100320008A1183120313A700270803199F2927089E
:10033000A02183120313A40A0319A50A8729080020
:1003400083120313A300831203138C18A929B0216D
:10035000A3298312031323088312031395000800B3
:1003600083120313971CB8299612961617121716A4
:1003700083120313171DBE29961296160800993092
:10038000FE000230FF0080308A11000066228A11D0
:10039000000083120313AD007F08AC009B30AE0059
:1003A0000230AF00831203132C08B0002D08B100F7
:1003B000FF30AC07031CAD033008310403194F2A8A
:1003C00004302E07B000B101B10D2F08B10730087D
:1003D000FE003108FF0080308A11000066228A1179
:1003E000000083120313B3007F08B2002E08FE0042
:1003F0002F08FF0080308A11000066228A11000059
:1004000083120313B500B1007F08B400B0000230BE
:100410002E07B000B101B10D2F08B1073008FE0062
:100420003108FF0080308A11000066228A11000026
:1004300083120313B100B7007F08B000B600831227
:1004400003133208B6003308B700FF30B207031CAD
:10045000B303360837040319482A3408FE00350868
:10046000FF0080308A11000053228A11000083129D
:100470000313B6003008840083133118831736083D
:100480008000B40A0319B50AB00A0319B10A1F2A79
:10049000063083120313AE070318AF0AD2298A115C
:1004A000000005280800003A03195A2A803A031967
:1004B000612A00347E08840083137F1883170008A4
:1004C00008007F088A007E0882000800003A0319AD
:1004D0006E2A803A0319782AFF0100347E088400CE
:1004E00083137F1883170008FF00840A00080800A0
:1004F0008A1100006122FD00FE0FFF03FF0A8A112E
:1005000000006122FC007D08FF007C0808006934BF
:1005100042347534743474346F346E342034463459
:100520006F3475346E3464342134203420342034F4
:10053000003401340034A43402344434003401342F
:0A05400000340A340D340034003496
:02400E00D43F9D
:00000001FF
