:020000040000FA
:0600000000008A119E2998
:06000A008A11B6208A11E4
:1000100083120313C40105110511D02205150E30FA
:1000200083120313C800D022831203130519A428D6
:10003000563083120313C800D02283120313051D08
:10004000A428023083120313BE00F730BD008030B5
:10005000BF003D08FE003E08FF003F088A11322223
:100060008A118A11E4208A1183120313BD003D080E
:1000700003198228831203132C0883120313BD0073
:100080008A1152228A11831203132D08831203133B
:10009000BD008A1152228A11831203132E08831283
:1000A0000313BD008A1152228A11831203132F08F1
:1000B00083120313BD008A1152228A118312031383
:1000C000300883120313BD008A1152228A11831251
:1000D0000313310883120313BD008A1152228A11BF
:1000E00083120313320883120313BD008A115222B4
:1000F0008A1183120313330883120313BD008A117C
:1001000052228A11033083120313BE001130BD0046
:100110008030BF003D08FE003E08FF003F088A1106
:1001200032228A1183120313441C9D288A11D5227E
:100130008A1183120313C401A4288A11D8228A11B8
:10014000013083120313C400FF308A11B8228A11D0
:10015000FF308A11B8228A11FF308A11B8228A1121
:10016000FF308A11B8228A110B2808008316031366
:100170008501870183120313850187018316031309
:10018000910107308312031399000430831603137F
:1001900095008112811101118110011460308F00CE
:1001A000193083120313930016151612971717169A
:1001B0009712831603138C108C12831203131613D9
:1001C00017139612961608003330862183120313F4
:1001D000B901831203133908803E783E03180429BD
:1001E00039082C3EBA0000300318013EBB006721DD
:1001F00083120313BC003A08840083133B1883174F
:100200003C088000B90AE928831203132C088312E2
:100210000313B900023A03190F290030662983122B
:100220000313C50183120313B901831203133908A1
:10023000803E793E0318552939082C3EBA0000301B
:100240000318013EBB003A08840083133B18831750
:10025000000883120313C60083120313C70183121D
:1002600003134708803E783E031851290310831278
:100270000313C61B0314C60C030883120313BA002E
:100280000310C50C030883120313BB00BA063A1C03
:100290004D298C3083120313C50683120313C70A3A
:1002A0002F2983120313B90A152983120313330864
:1002B00083120313B9008312031345088312031337
:1002C000390603196529003066290130080000301D
:1002D000C6000830C700051105110000000000002D
:1002E00000000000000005150000000000000000F4
:1002F000050804390310FF3EC60C0A30C800D0229E
:10030000C70B6B29831203134608080083120313DB
:10031000C600083083120313C70005110511000041
:1003200000000000C60C031805150C30C800D022D0
:10033000051500000000C70B8D2908000930FE00DC
:100340000330FF0080308A11000084228A110000EF
:1003500083120313A1007F08A0000B30A20003301A
:10036000A300831203132008A4002108A500FF3076
:10037000A007031CA1032408250403192E2A043016
:100380002207A400A501A50D2308A5072408FE0047
:100390002508FF0080308A11000084228A110000A5
:1003A00083120313A7007F08A6002208FE0023087B
:1003B000FF0080308A11000084228A11000083121D
:1003C0000313A900A5007F08A800A400023022079B
:1003D000A400A501A50D2308A5072408FE002508F3
:1003E000FF0080308A11000084228A1100008312ED
:1003F0000313A500AB007F08A400AA008312031317
:100400002608AA002708AB00FF30A607031CA70395
:100410002A082B040319272A2808FE002908FF00B0
:1004200080308A11000071228A11000083120313A8
:10043000AA00240884008313251883172A08800043
:10044000A80A0319A90AA40A0319A50AFE29063055
:1004500083120313A2070318A30AB1298A1100000B
:100460000528080083120313B7007F08B6007E0832
:10047000B500831203133508FE003608FF00370865
:100480008A1171228A1183120313B80038080319E4
:10049000512A3808522283120313B50A0319B60AE7
:1004A000392A080083120313B400831203138C1833
:1004B0005B2A6222552A8312031334088312031322
:1004C0009500080083120313971C6A2A9612961649
:1004D0001712171683120313171D702A96129616F9
:1004E0000800003A0319782A803A03197F2A003459
:1004F0007E08840083137F188317000808007F0894
:100500008A007E0882000800003A03198C2A803A8B
:100510000319962AFF0100347E08840083137F1894
:1005200083170008FF00840A000808008A110000F1
:100530007F22FD00FE0FFF03FF0A8A1100007F22C9
:10054000FC007D08FF007C08080083120313C10033
:1005500000308312031341040319B72A14308312A5
:100560000313C800D02283120313C103A82A080072
:1005700083120313C00000308312031340040319D5
:10058000CF2A063083120313810000308312031335
:100590000104031DC52A83120313C003BB2A0800EC
:1005A00000000000C80BD02A08000F30DB22080032
:1005B0000830DB22080083120313C2001430C3008A
:1005C00000308312031343040319F62A071483121D
:1005D000031342088A11A5228A11071014308A11C8
:1005E000B8228A1183120313C303E02A0800693476
:1005F00042347534743474346F346E342034463479
:100600006F3475346E346434213420342034203413
:1006100000340134003414340334493400340134D8
:0A06200000340A340D3400340034B5
:02400E00D43F9D
:00000001FF
