:020000040000FA
:0600000000008A11322A03
:08000800F200030E8301F10078
:100010000A088A01F000040883120313D100831236
:100020000313051917288A111D218A111E2883120E
:1000300003134C181E288A114C208A1105088312BC
:1000400003130B10831203135108840070088A00F5
:100050008301710E8300F20E720E09008A114C2189
:100060008A1183120313CB0183120313CC0185166B
:100070008715033083120313AD008630AC00803047
:10008000AE002C08FE002D08FF002E088A11C622A3
:100090008A116300392808000A3083120313B20062
:1000A00000308312031332040319F12885128512DC
:1000B0005F2385160E3083120313D0005F23831253
:1000C0000313851AED28563083120313D0005F23E3
:1000D00083120313851EDD288A1189218A11831258
:1000E0000313B30033080319ED280330B4009F3025
:1000F000B3008030B5003308FE003408FF00350837
:100100008A11C6228A11831203133608831203133D
:10011000B3008A11E6228A1183120313370883126F
:100120000313B3008A11E6228A11831203133808DD
:1001300083120313B3008A11E6228A118312031378
:10014000390883120313B3008A11E6228A1183123D
:1001500003133A0883120313B3008A11E6228A11AB
:10016000831203133B0883120313B3008A11E622A0
:100170008A11831203133C0883120313B3008A11FC
:10018000E6228A11831203133D0883120313B3007E
:100190008A11E6228A11033083120313B400B130AE
:1001A000B3008030B5003308FE003408FF00350886
:1001B0008A11C6228A110621F12803308312031303
:1001C000B4009430B3008030B5003308FE0034082A
:1001D000FF0035088A11C6228A1183120313B20365
:1001E00050280800831203134C1CF928CC018714F3
:1001F0000529013083120313CB000130831203134E
:10020000CC0087108A1167238A1108008312031318
:10021000CC018714831203134B1C15298A11642304
:100220008A1183120313CB011C298A1167238A11B7
:10023000013083120313CB00080083120313AF01B4
:10024000043083120313050583120313B000300832
:10025000003003190130B10064302F02B001031CDB
:1002600030143008B105310803193E290A308A11CB
:100270004C238A1183120313AF0A2029831203131C
:100280002F08643A031D48298A11F2208A114B294C
:100290008A1106218A110800043083160313850091
:1002A0000516203087008312031385018701871408
:1002B0000715831603139101073083120313990066
:1002C00083160313811395011515831203138B17DE
:1002D0000B178316031396011615161683120313B4
:1002E0008B156030831603138F00193083120313AC
:1002F00093001615161297171716971283160313E5
:100300008C108C1283120313161317139612961661
:10031000080033301A2283120313C30108308312FA
:10032000031343020318A8294308363EC4000030D3
:100330000318013EC500FB2183120313C6004408C5
:10034000840083134518831746088000C30A8E294A
:1003500083120313CD0183120313C30107308312E9
:10036000031343020318E9294308363EC400003052
:100370000318013EC5004408840083134518831701
:10038000000883120313CE0083120313CF01083039
:10039000831203134F020318E5290310831203137A
:1003A000CE0C030883120313C4000310CD0C030802
:1003B00083120313C406441CE1298C3083120313F7
:1003C000CD0683120313CF0AC72983120313C30A6E
:1003D000AE29831203133D0883120313C300831253
:1003E00003134D088312031343060319F929003040
:1003F000FA29013008000030CE000830CF00851205
:1004000085120000000000000000000000008516BA
:100410000000000000000000050820390310FF3E26
:10042000CE0C0A30D0005F23CF0BFF2983120313B9
:100430004E08080083120313CE0008308312031302
:10044000CF0085128512000000000000CE0C0318BA
:1004500085160C30D0005F23851600000000CF0BFE
:10046000212A0800A930FE000330FF0080308A11E5
:10047000000018238A11000083120313A1007F08D3
:10048000A000AB30A2000330A300831203132008A6
:10049000A4002108A500FF30A007031CA103240825
:1004A00025040319C22A04302207A400A501A50DC2
:1004B0002308A5072408FE002508FF0080308A11C4
:1004C000000018238A11000083120313A7007F087D
:1004D000A6002208FE002308FF0080308A110000D9
:1004E00018238A11000083120313A900A5007F08B6
:1004F000A800A40002302207A400A501A50D23082E
:10050000A5072408FE002508FF0080308A1100009E
:1005100018238A11000083120313A500AB007F0883
:10052000A400AA00831203132608AA002708AB0020
:10053000FF30A607031CA7032A082B040319BB2AB4
:100540002808FE002908FF0080308A1100000523DA
:100550008A11000083120313AA0024088400831365
:10056000251883172A088000A80A0319A90AA40AD3
:100570000319A50A922A063083120313A20703184F
:10058000A30A452A8A1100002E28080083120313AB
:10059000C1007F08C0007E08BF00831203133F081C
:1005A000FE004008FF0041088A1105238A118312CA
:1005B0000313C20042080319E52A4208E622831207
:1005C0000313BF0A0319C00ACD2A080083120313BC
:1005D000BE00831203138C18EF2AF622E92A831235
:1005E00003133E08831203139500080083120313BC
:1005F000971CFE2A961296161712171683120313CB
:10060000171D042B961296160800003A03190C2B9E
:10061000803A0319132B00347E08840083137F185B
:100620008317000808007F088A007E0882000800FF
:10063000003A0319202B803A03192A2BFF010034BA
:100640007E08840083137F1883170008FF00840A44
:10065000000808008A1100001323FD00FE0FFF03AD
:10066000FF0A8A1100001323FC007D08FF007C08AC
:10067000080083120313C8000030831203134804D8
:1006800003194B2B143083120313D0005F23831202
:100690000313C8033C2B080083120313C700003068
:1006A00083120313470403195E2BC830831203130C
:1006B000D0005F2383120313C7034F2B08000000F1
:1006C0000000D00B5F2B08000F306A2308000830B1
:1006D0006A23080083120313C9001430CA000030D3
:1006E000831203134A040319852B0714831203137F
:1006F00049088A1139238A11071014308A114C23B2
:100700008A1183120313CA036F2B080053346C340D
:1007100065346534703469346E3467342E342E3465
:100720002E340A340D340034533468346F34723448
:100730007434653464343F340A340D34003469341D
:1007400042347534743474346F346E343A34203433
:10075000003401340034B4340334523400340134EE
:0A07600000340A340D340034003474
:02400E00D43F9D
:00000001FF
