:020000040000FA
:0600000000008A112D2B07
:08000800F200030E8301F10078
:100010000A088A01F000040883120313E80083121F
:100020000313051917288A1117228A111E28831213
:10003000031362181E288A117F218A110508831272
:1000400003130B10831203136808840070088A00DE
:100050008301710E8300F20E720E090083120313E6
:10006000BD00831203136708053A0319E7018312E1
:1000700003133D08BD3A031D4628BD308312031308
:10008000D400013083120313E7005B2883120313AB
:100090006708543E83120313BE0000300318013E6C
:1000A000BF003E08840083133F1883173D0880007B
:1000B00083120313E70A080083120313BA00BD304A
:1000C00083120313C900F030CA00831203133A08E5
:1000D000073A0319E928013083120313CB00831276
:1000E00003133A02031CD42807303A020318D42819
:1000F000BA0300308A0082303A0703188A0A831252
:1001000003138200882894289F28AD28BA28C8287D
:10011000831203134A0883120313BA0083120313D2
:10012000CA000130CC00D428831203134A0883127A
:100130000313BA0083120313CA00CC01D42883121C
:1001400003134A0883120313BA003A143A088312BD
:100150000313CA000130CC00D428831203134A08C9
:1001600083120313BA003A143A0883120313CA0025
:10017000CC01D428831203134A0883120313BA0054
:10018000BA143A0883120313CA000130CC00D428F1
:10019000831203134A0883120313BA00BA143A08ED
:1001A00083120313CA00CC01DB3083120313CD008A
:1001B000CE01003083120313BB004930BA00BC01EA
:1001C0003A08FE003B08FF0000308A11C1238A1163
:1001D0001A29831203134A0883120313BA000F303B
:1001E000BA043A0883120313CA000830CB00CC01CA
:1001F000003083120313BB004930BA00BC013A0837
:10020000FE003B08FF0000308A11C1238A11003034
:1002100083120313BB004030BA00BC013A08FE0051
:100220003B08FF0000308A11C1238A11DB308A119C
:10023000E1238A1108008312031354088312031365
:10024000B600BD3A0319262900305F298312031333
:10025000670383120313B600543EB6000030031840
:10026000013EB7003608840083133718831700084F
:10027000B800DB3A03193E2900305F2983120313CB
:10028000560883120313B600B700B80104303707CD
:10029000B600B901B90D0030B9078312031367081E
:1002A00083120313B700B80137083606031D5C2913
:1002B0003808390603195E2900305F29013008002B
:1002C00008008A1146228A1183120313E101831266
:1002D0000313E20185168715043083120313AD0062
:1002E0008130AC008030AE002C08FE002D08FF00ED
:1002F0002E088A11C1238A1163006C2908000A3074
:1003000083120313B2000030831203133204031963
:10031000EB29851285125A2485160E308312031399
:10032000E6005A2483120313851AE72956308312F4
:100330000313E6005A2483120313851ED7298A115A
:1003400083228A1183120313B30033080319E729A8
:100350000430B4009A30B3008030B5003308FE009A
:100360003408FF0035088A11C1238A110030831236
:100370000313B4004030B300B5013308FE00340865
:10038000FF0000308A11C1238A1104308312031345
:10039000B400AC30B3008030B5003308FE00340840
:1003A000FF0035088A11C1238A110022EB2904308D
:1003B00083120313B4008F30B3008030B5003308CC
:1003C000FE003408FF0035088A11C1238A11831208
:1003D0000313B2038329080083120313621CF32959
:1003E000E2018714FF29013083120313E100013079
:1003F00083120313E20087108A1162248A11080015
:1004000083120313E201871483120313611C0F2A62
:100410008A115F248A1183120313E101162A8A11BB
:1004200062248A11013083120313E1000800831251
:100430000313AF0104308312031305058312031362
:10044000B0003008003003190130B10064302F02D1
:10045000B001031C30143008B10531080319382AE3
:100460000A308A1147248A1183120313AF0A1A2A09
:10047000831203132F08643A031D422A8A11EC21C8
:100480008A11452A8A1100228A1108000430831635
:10049000031385000516203087008312031385019E
:1004A0008701871407158316031391010730831200
:1004B00003139900831603138113950115158312F5
:1004C00003138B170B1783160313960116151616B5
:1004D000831203138B156030831603138F001930BA
:1004E00083120313930016151612971717169712F7
:1004F000831603138C108C12831203131613171315
:100500009612961608003330152383120313D9016F
:1005100008308312031359020318A22A5908403ED7
:10052000DA0000300318013EDB00F62283120313C9
:10053000DC005A08840083135B1883175C08800072
:10054000D90A882A83120313E30183120313D90102
:1005500007308312031359020318E32A5908403E57
:10056000DA0000300318013EDB005A0884008313D0
:100570005B188317000883120313E400831203132C
:10058000E50108308312031365020318DF2A031004
:1005900083120313E40C030883120313DA0003101D
:1005A000E30C030883120313DA065A1CDB2A8C308F
:1005B00083120313E30683120313E50AC12A83128D
:1005C0000313D90AA82A83120313C8014708831208
:1005D0000313D9008312031363088312031359060C
:1005E0000319F42A0030F52A013008000030E40035
:1005F0000830E500851285120000000000000000B0
:100600000000000085160000000000000000050842
:1006100020390310FF3EE40C0A30E6005A24E50BB3
:10062000FA2A831203136408080083120313E400F8
:10063000083083120313E5008512851200000000C4
:100640000000E40C031885160C30E6005A248516C9
:1006500000000000E50B1C2B0800A430FE00043055
:10066000FF0080308A11000013248A1100008312D9
:100670000313A1007F08A000A630A2000430A3004D
:10068000831203132008A4002108A500FF30A0074F
:10069000031CA103240825040319BD2B04302207E1
:1006A000A400A501A50D2308A5072408FE00250820
:1006B000FF0080308A11000013248A110000831289
:1006C0000313A7007F08A6002208FE002308FF00EE
:1006D00080308A11000013248A1100008312031352
:1006E000A900A5007F08A800A40002302207A400EA
:1006F000A501A50D2308A5072408FE002508FF0075
:1007000080308A11000013248A1100008312031321
:10071000A500AB007F08A400AA00831203132608DB
:10072000AA002708AB00FF30A607031CA7032A086E
:100730002B040319B62B2808FE002908FF0080307F
:100740008A11000000248A11000083120313AA00FA
:10075000240884008313251883172A088000A80A18
:100760000319A90AA40A0319A50A8D2B06308312BE
:100770000313A2070318A30A402B8A110000612962
:10078000080083120313D2007F08D1007E08D00036
:10079000831203135008FE005108FF0052088A110B
:1007A00000248A1183120313D30053080319E02B8A
:1007B0005308E12383120313D00A0319D10AC82B6B
:1007C000080083120313CF00831203138C18EA2B43
:1007D000F123E42B831203134F08831203139500B4
:1007E000080083120313971CF92B96129616171202
:1007F000171683120313171DFF2B96129616080067
:10080000003A0319072C803A03190E2C00347E0895
:10081000840083137F188317000808007F088A006C
:100820007E0882000800003A03191B2C803A031945
:10083000252CFF0100347E08840083137F18831762
:100840000008FF00840A000808008A1100000E2436
:10085000FD00FE0FFF03FF0A8A1100000E24FC00BA
:100860007D08FF007C08080083120313DE000030BF
:10087000831203135E040319462C143083120313EE
:10088000E6005A2483120313DE03372C0800831278
:100890000313DD000030831203135D040319592C88
:1008A000C83083120313E6005A2483120313DD03B6
:1008B0004A2C080000000000E60B5A2C08000F30FC
:1008C0006524080008306524080083120313DF0044
:1008D0001430E00000308312031360040319802CED
:1008E0000714831203135F088A1134248A11071036
:1008F00014308A1147248A1183120313E0036A2CEF
:10090000080053346C3465346534703469346E34A3
:1009100067342E342E342E340A340D3400345334DC
:1009200068346F3472347434653464343F340A3458
:100930000D340034693442347534743474346F3493
:100940006E343A342034003401340034AF3404348B
:1009500069340034013400340A340D340034003476
:02400E00D43F9D
:00000001FF
