:020000040000FA
:0600000000008A117B29BB
:06000A008A1196208A1104
:10001000051105119C2205150E3083120313C30030
:100020009C228312031305198F2856308312031361
:10003000C3009C2283120313051D8F2802308312F4
:100040000313BE008230BD008030BF003D08FE00BB
:100050003E08FF003F088A110F228A118A11C12031
:100060008A1183120313BD003D0803197F288312F0
:1000700003132C0883120313BD008A112F228A1147
:10008000831203132D0883120313BD008A112F223C
:100090008A11831203132E0883120313BD008A11E1
:1000A0002F228A11831203132F0883120313BD001A
:1000B0008A112F228A11831203133008831203132B
:1000C000BD008A112F228A11831203133108831273
:1000D0000313BD008A112F228A11831203133208E1
:1000E00083120313BD008A112F228A118312031376
:1000F000330883120313BD008A112F228A110230A4
:1001000083120313BE00A130BD008030BF003D0844
:10011000FE003E08FF003F088A110F228A11FF30BF
:1001200083120313C3009C220828080083160313BC
:10013000850102308700831203138501870183162E
:1001400003139101073083120313990004308316BF
:1001500003139500811260308F001930831203134E
:100160009300161516129717171697128316031376
:100170008C108C12831203131613171396129616F3
:1001800008003330632183120313B9018312031370
:100190003908803E783E0318E12839082C3EBA0021
:1001A00000300318013EBB00442183120313BC003E
:1001B0003A08840083133B1883173C088000B90A6F
:1001C000C628831203132C0883120313B900023AC2
:1001D0000319EC280030432983120313C001831252
:1001E0000313B901831203133908803E793E0318C3
:1001F000322939082C3EBA0000300318013EBB00FA
:100200003A08840083133B188317000883120313F2
:10021000C10083120313C201831203134208803EFC
:10022000783E03182E29031083120313C11B0314F5
:10023000C10C030883120313BA000310C00C030897
:1002400083120313BB00BA063A1C2A298C3083128E
:100250000313C00683120313C20A0C29831203136B
:10026000B90AF22883120313330883120313B90067
:10027000831203134008831203133906031942291A
:1002800000304329013008000030C1000830C200AE
:100290000511051100000000000000000000000032
:1002A00005150000000000000000050804390310D7
:1002B000FF3EC10C0A30C3009C22C20B48298312A6
:1002C00003134108080083120313C100083083128E
:1002D0000313C20005110511000000000000C10C4D
:1002E000031805150C30C3009C2205150000000002
:1002F000C20B6A2908009430FE000230FF008030F3
:100300008A11000061228A11000083120313A100E8
:100310007F08A0009630A2000230A30083120313CE
:100320002008A4002108A500FF30A007031CA1039A
:100330002408250403190B2A04302207A400A50170
:10034000A50D2308A5072408FE002508FF0080301E
:100350008A11000061228A11000083120313A70092
:100360007F08A6002208FE002308FF0080308A11C3
:10037000000061228A11000083120313A900A50066
:100380007F08A800A40002302207A400A501A50D43
:100390002308A5072408FE002508FF0080308A11E5
:1003A000000061228A11000083120313A500AB0034
:1003B0007F08A400AA00831203132608AA002708B6
:1003C000AB00FF30A607031CA7032A082B04031960
:1003D000042A2808FE002908FF0080308A11000046
:1003E0004E228A11000083120313AA0024088400FD
:1003F0008313251883172A088000A80A0319A90A5D
:10040000A40A0319A50ADB29063083120313A207E5
:100410000318A30A8E298A110000052808008312F8
:100420000313B7007F08B6007E08B50083120313DC
:100430003508FE003608FF0037088A114E228A115F
:1004400083120313B800380803192E2A38082F2204
:1004500083120313B50A0319B60A162A0800831279
:100460000313B400831203138C18382A3F22322A54
:1004700083120313340883120313950008008312B8
:100480000313971C472A96129616171217168312F3
:100490000313171D4D2A961296160800003A0319E9
:1004A000552A803A03195C2A00347E08840083139D
:1004B0007F188317000808007F088A007E088200E2
:1004C0000800003A0319692A803A0319732AFF01C8
:1004D00000347E08840083137F1883170008FF0010
:1004E000840A000808008A1100005C22FD00FE0F4B
:1004F000FF03FF0A8A1100005C22FC007D08FF0058
:100500007C080800693442347534743474346F34B0
:100510006E34203446346F3475346E346434213490
:10052000203420342034003401340034A434023424
:10053000443400340134003400000000C30B9C2A12
:0A05400008000A340D3400340034C2
:02400E00D43F9D
:00000001FF
