:020000040000FA
:0600000000008A116929CD
:06000A008A1196208A1104
:1000100007100710252107140E3083120313C000A8
:1000200025218312031307188F28563083120313D8
:10003000C000252183120313071C8F28023083126E
:100040000313A1003130A0008030A2002008FE0080
:100050002108FF0022088A112A218A118A11C12051
:100060008A1183120313A000200803197F2883122A
:100070000313380883120313A0008A114A218A113E
:1000800083120313390883120313A0008A114A2133
:100090008A11831203133A0883120313A0008A11F2
:1000A0004A218A11831203133B0883120313A00011
:1000B0008A114A218A11831203133C088312031305
:1000C000A0008A114A218A11831203133D0883126A
:1000D0000313A0008A114A218A11831203133E08D8
:1000E00083120313A0008A114A218A118312031379
:1000F0003F0883120313A0008A114A218A1102309B
:1001000083120313A1004B30A0008030A20020080E
:10011000FE002108FF0022088A112A218A11FF30DF
:1001200083120313C0002521082808008316031337
:10013000850102308700831203138501870183162E
:1001400003139101073083120313990004308316BF
:1001500003139500811260308F001930831203134E
:100160009300161516129717171697128316031376
:100170008C108C12831203131613171396129616F3
:10018000080033300D2183120313A80183120313D7
:100190002808803E783E0318E1282808383EA90048
:1001A00000300318013EAA00EE2083120313AB00B7
:1001B0002908840083132A1883172B088000A80AB3
:1001C000C62883120313380883120313A800023AC7
:1001D0000319EC280030ED28013008000030C10080
:1001E0000830C200071007100000000000000000E7
:1001F00000000000071400000000000000000708D5
:1002000001390310FF3EC10C0A30C0002521C20B8A
:10021000F228831203134108080083120313C1005C
:10022000083083120313C2000710071000000000FB
:100230000000C10C031807140C30C000252107145E
:1002400000000000C20B1429080000000000C00BD1
:100250002529080083120313A6007F08A5007E0845
:10026000A400831203132408FE002508FF002608BB
:100270008A11FD218A1183120313A700270803198D
:10028000492927084A2183120313A40A0319A50A3E
:100290003129080083120313A300831203138C185F
:1002A00053295A214D298312031323088312031360
:1002B0009500080083120313971C62299612961664
:1002C0001712171683120313171D68299612961614
:1002D00008004330FE000230FF0080308A11000029
:1002E00010228A11000083120313AD007F08AC00B6
:1002F0004530AE000230AF00831203132C08B0006B
:100300002D08B100FF30AC07031CAD0330083104E9
:100310000319F92904302E07B000B101B10D2F08DF
:10032000B1073008FE003108FF0080308A1100005C
:1003300010228A11000083120313B3007F08B20059
:100340002E08FE002F08FF0080308A1100001022C6
:100350008A11000083120313B500B1007F08B400B6
:10036000B00002302E07B000B101B10D2F08B10767
:100370003008FE003108FF0080308A110000102292
:100380008A11000083120313B100B7007F08B00088
:10039000B600831203133208B6003308B700FF30EB
:1003A000B207031CB303360837040319F2293408D3
:1003B000FE003508FF0080308A110000FD218A11FF
:1003C000000083120313B600300884008313311831
:1003D000831736088000B40A0319B50AB00A031956
:1003E000B10AC929063083120313AE070318AF0AF6
:1003F0007C298A11000005280800003A0319042A04
:10040000803A03190B2A00347E08840083137F1876
:100410008317000808007F088A007E088200080011
:10042000003A0319182A803A0319222AFF010034DE
:100430007E08840083137F1883170008FF00840A56
:10044000000808008A1100000B22FD00FE0FFF03C8
:10045000FF0A8A1100000B22FC007D08FF007C08C7
:100460000800693442347534743474346F346E3433
:10047000203446346F3475346E346434213420347F
:10048000203420340034013400344E3402344334F8
:0E0490000034013400340A340D3400340034DA
:02400E00D43F9D
:00000001FF
