:020000040000FA
:0600000000008A11092A2C
:08000800F200030E8301F10078
:100010000A088A01F000040883120313CD0083123A
:100020000313851A642883120313B7012030831247
:100030000313050583120313B800380800300319B1
:100040000130B90064303702B801031C3814380895
:10005000B9053908031934280A308A1123238A1173
:1000600083120313B70A1628831203133708643A5E
:10007000031D4E2883120313481C4128C80105168E
:100080006428013083120313C70001308312031365
:10009000C80005128A113E238A11642883120313B3
:1000A000C801051683120313471C5D288A113B23E0
:1000B0008A1183120313C70164288A113E238A110F
:1000C000013083120313C700831203130B10831232
:1000D00003134D08840070088A008301710E8300A9
:1000E000F20E720E09008A1114218A118312031371
:1000F000C70105110511362305150E3083120313B0
:10010000CC00362383120313051979285630831245
:100110000313CC00362383120313051D7928033003
:1001200083120313B5005D30B4008030B60034088C
:10013000FE003508FF0036088A119D228A118A11B7
:1001400055218A1183120313B40034080319F028CF
:10015000831203132C0883120313B4008A11BD22E7
:100160008A11831203132D0883120313B4008A111A
:10017000BD228A11831203132E0883120313B400C5
:100180008A11BD228A11831203132F0883120313CD
:10019000B4008A11BD228A1183120313300883121E
:1001A0000313B4008A11BD228A118312031331088C
:1001B00083120313B4008A11BD228A118312031320
:1001C000320883120313B4008A11BD228A118312EC
:1001D0000313330883120313B4008A11BD228A115A
:1001E000033083120313B5007730B4008030B600BB
:1001F0003408FE003508FF0036088A119D228A1156
:1002000083120313471C0B298A113B238A11831283
:100210000313C70179288A113E238A110130831202
:100220000313C700792808002030831603138500C4
:100230002030870083120313850187010516871577
:100240008316031391010730831203139900831659
:100250000313811395019516831203138B170B1744
:1002600083160313960196161615831203138B1526
:100270008316031381128111011181100114603062
:100280008F00193083120313930016151612971757
:1002900017169712831603138C108C1283120313F4
:1002A000161317139612961608003330F121831295
:1002B0000313BF010830831203133F02031874298C
:1002C0003F082C3EC00000300318013EC100D2217F
:1002D00083120313C200400884008313411883175C
:1002E00042088000BF0A5A29831203132C08831284
:1002F0000313BF00023A03197F290030D12983126A
:100300000313C90183120313BF01073083120313C0
:100310003F020318C0293F082C3EC00000300318DC
:10032000013EC10040088400831341188317000870
:1003300083120313CA0083120313CB010830831204
:1003400003134B020318BC29031083120313CA0CB6
:10035000030883120313C0000310C90C030883129F
:100360000313C006401CB8298C3083120313C9063E
:1003700083120313CB0A9E2983120313BF0A852914
:1003800083120313330883120313BF008312031372
:100390004908831203133F060319D0290030D129DD
:1003A000013008000030CA000830CB0005110511EB
:1003B0000000000000000000000000000515000023
:1003C000000000000000050804390310FF3ECA0CBD
:1003D0000A30CC003623CB0BD629831203134A08EC
:1003E000080083120313CA00083083120313CB00E2
:1003F00005110511000000000000CA0C03180515C6
:100400000C30CC003623051500000000CB0BF8297A
:1004100008006F30FE000330FF0080308A110000BA
:10042000EF228A11000083120313A1007F08A000AD
:100430007130A2000330A300831203132008A4002C
:100440002108A500FF30A007031CA10324082504F0
:100450000319992A04302207A400A501A50D230839
:10046000A5072408FE002508FF0080308A1100003F
:10047000EF228A11000083120313A7007F08A60051
:100480002208FE002308FF0080308A110000EF22BE
:100490008A11000083120313A900A5007F08A80099
:1004A000A40002302207A400A501A50D2308A5077A
:1004B0002408FE002508FF0080308A110000EF228A
:1004C0008A11000083120313A500AB007F08A4006B
:1004D000AA00831203132608AA002708AB00FF30E6
:1004E000A607031CA7032A082B040319922A28082D
:1004F000FE002908FF0080308A110000DC228A11EA
:10050000000083120313AA00240884008313251813
:1005100083172A088000A80A0319A90AA40A031944
:10052000A50A692A063083120313A2070318A30A37
:100530001C2A8A1100007328080083120313BD00CF
:100540007F08BC007E08BB00831203133B08FE003B
:100550003C08FF003D088A11DC228A118312031334
:10056000BE003E080319BC2A3E08BD2283120313B5
:10057000BB0A0319BC0AA42A080083120313BA0099
:10058000831203138C18C62ACD22C02A83120313A8
:100590003A08831203139500080083120313971C73
:1005A000D52A961296161712171683120313171DC3
:1005B000DB2A961296160800003A0319E32A803ABD
:1005C0000319EA2A00347E08840083137F188317F6
:1005D000000808007F088A007E0882000800003AB0
:1005E0000319F72A803A0319012BFF0100347E0812
:1005F000840083137F1883170008FF00840A000813
:1006000008008A110000EA22FD00FE0FFF03FF0A26
:100610008A110000EA22FC007D08FF007C08080027
:1006200083120313C400003083120313440403191C
:10063000222B143083120313CC00362383120313AE
:10064000C403132B080083120313C300003083126A
:10065000031343040319352BC83083120313CC0052
:10066000362383120313C303262B08000000000067
:10067000CC0B362B08000F304123080008304123F3
:10068000080083120313C5001430C6000030831223
:100690000313460403195C2B071483120313450844
:1006A0008A1110238A11071014308A1123238A110A
:1006B00083120313C603462B080069344234753491
:1006C000743474346F346E34203446346F3475347B
:1006D0006E34643421342034203420340034013426
:1006E00000347A3403344E340034013400340A3494
:0606F0000D34003400345B
:02400E00D43F9D
:00000001FF
