:020000040000FA
:0600000000008A11052832
:06000A00FD30FE00003095
:10001000FF0080308A110000AC208A11000083129A
:100020000313A1007F08A000FF30A2000030A3004E
:10003000831203132008A4002108A500FF30A007A5
:10004000031CA10324082504031995280430220762
:10005000A400A501A50D2308A5072408FE00250876
:10006000FF0080308A110000AC208A11000083124A
:100070000313A7007F08A6002208FE002308FF0044
:1000800080308A110000AC208A1100008312031313
:10009000A900A5007F08A800A40002302207A40040
:1000A000A501A50D2308A5072408FE002508FF00CB
:1000B00080308A110000AC208A11000083120313E3
:1000C000A500AB007F08A400AA0083120313260832
:1000D000AA002708AB00FF30A607031CA7032A08C5
:1000E0002B0403198E282808FE002908FF00803001
:1000F0008A11000099208A11000083120313AA00BC
:10010000240884008313251883172A088000A80A6E
:100110000319A90AA40A0319A50A6528063083123F
:100120000313A2070318A30A18288A110000CD2878
:100130000800003A0319A028803A0319A7280034C0
:100140007E08840083137F188317000808007F0847
:100150008A007E0882000800003A0319B428803A19
:100160000319BE28FF0100347E08840083137F1822
:1001700083170008FF00840A000808008A110000A5
:10018000A720FD00FE0FFF03FF0A8A110000A72031
:10019000FC007D08FF007C0808008A11D2208A112B
:1001A000D0280800831603138501013087008312CD
:1001B000031385018701831603139101073083120E
:1001C00003139900043083160313950081126030E5
:1001D0008F00193083120313930016151612971708
:1001E00017169712831603138C108C1283120313A5
:1001F00016131713961296160800013400340534AE
:0C02000001342C3400340134003400348C
:02400E00D43F9D
:00000001FF
